:020000040800F2
:10000000B81A002049020008BD1D0008F11B0008B5
:10001000B91D0008410E0008A924000800000000D6
:10002000000000000000000000000000C31D0008E8
:10003000450E000800000000C11D0008C51D000895
:1000400063020008630200086302000863020008FC
:1000500063020008630200086302000863020008EC
:1000600063020008630200086302000863020008DC
:1000700063020008630200086302000863020008CC
:100080006302000863020008630200080000000029
:1000900000000000000000000000000063020008F3
:1000A000630200086302000863020008630200089C
:1000B000630200086302000863020008630200088C
:1000C000630200086302000863020008630200087C
:1000D00063020008212200086302000800000000FB
:1000E00063020008630200086302000800000000C9
:1000F0000000000000000000000000006302000893
:1001000000000000630200086302000863020008A8
:1001100000000000000000000000000000000000DF
:10012000630200086302000863020008630200081B
:100130006302000800000000000000000000000052
:100140000000000000000000000000006302000842
:100150006302000863020008630200085D230008D0
:1001600063020008630200080000000000000000B5
:10017000000000000000000000000000000000007F
:100180000000000063020008000000000000000002
:100190006302000800F002F800F047F80AA090E8B7
:1001A000000C82448344AAF10107DA4501D100F032
:1001B0003CF8AFF2090EBAE80F0013F0010F18BFB8
:1001C000FB1A43F001031847682F0000882F000036
:1001D000103A24BF78C878C1FAD8520724BF30C873
:1001E00030C144BF04680C60704700000023002445
:1001F00000250026103A28BF78C1FBD8520728BF37
:1002000030C148BF0B607047002070471FB502F037
:1002100065FF00F0C7FD04000020002102F048FF48
:10022000401C60601FBD10B510BD00F08DFD114673
:10023000FFF7ECFF02F044FD00F0B8FD03B4FFF758
:10024000F2FF03BC02F0B3FB0948804709480047AE
:10025000FEE7FEE7FEE7FEE7FEE7FEE7FEE7FEE776
:10026000FEE7FEE704480549054A064B70470000D3
:10027000811E000895010008B8140020B81A00205B
:10028000B8160020B8160020704753EA020C00F0A0
:1002900069802DE9F04B4FF00006002B1FBFB3FA29
:1002A00083F503FA05F424FA05F65E4012BF1643FF
:1002B000B2FA82F502FA05F4C5F120051EBF22FA52
:1002C00005FC44EA0C04203556EA044C4FEA144479
:1002D00018BF641C4FF000084FF00009904271EB0A
:1002E000030C39D3002919BFB1FA81F701FA07F6D7
:1002F000B0FA80F700FA07F6C7F120071EBF20FA10
:1003000007FC46EA0C062037B6FBF4FCA7EB050712
:10031000103F07F01F0BCBF120060CFA0BFB2CFA59
:1003200006F644BFB3460026202FA4BF5E464FF01A
:10033000000B5BEA060C08BF4FF0010B19EB0B0931
:10034000ABFB027C48EB0608C01B06FB02CC0BFB98
:1003500003CC71EB0C01C1E70B460246414648460F
:10036000BDE8F08B13B54FF000004FF00001AFF384
:100370000080BDE81C4070470FB4044910B503AAC3
:10038000029800F049FA10BC5DF814FB240000202C
:100390002DE9F05F894604464FF0000ADFF874B19A
:1003A000FB44C0F820A02046E1688847002874D0AC
:1003B000252806D0D4E901219047206A401C2062FC
:1003C000F1E700265F462046E16888472028054679
:1003D00007DB312D05D2781910F8200C08B106433F
:1003E000F1E7B00701D526F00406C4F81CA00027E9
:1003F000C4F818A02A2D09D0284602F0D1FA38B343
:1004000004EB8708303DC8F8185019E059F8041B70
:10041000204604EB87029161E1688847012F054679
:1004200018D1E069002820DA26F020061DE0D8F86F
:10043000180000EB800005EB40003038C8F81800C9
:100440002046E1688847054602F0AAFA0028EED166
:10045000012F0AD02E2D08D12046E16888477F1C45
:100460000546022F46F02006C4DBA069002803DA07
:10047000404246F00106A061F00701D026F01006C8
:100480006C2D0BD0682D09D04C2D39D06A2D35D06C
:10049000742D35D07A2D33D016E038E0E1682F4640
:1004A00020468847B842054609D16C2F26D04FF424
:1004B0008060E168064320468847054604E06C2FCB
:1004C0001AD04FF4807006430DB3A5F141001928EE
:1004D00002D8203546F400664A4629462046266062
:1004E0004E46FFF791FE80B101280BD0F61D26F095
:1004F000070000F1080956E74020E4E78020D8E72C
:100500000020D6E706F104094DE7284652E7206AA5
:10051000BDE8F09F5A2D00000FB400B58DB010A9B2
:10052000099000910B904FF0FF300A9000200C9042
:10053000064878440690064878446A4607900F9922
:1005400009A800F08FF90DB05DF814FB4F0300000F
:10055000670300002DE9FF5F1D464FF0FF3B91460A
:100560004FF000085F46D5E90146A96901987F1C54
:100570008847296A824688470028F6D1BAF1FF3FAA
:100580000CD0002E24F4C06419DD600614D5BAF135
:100590002B0F09D0BAF12D0F0ED103E0584604B04D
:1005A000BDE8F09F44F48064A96901987F1C8847E6
:1005B000761E8246002E02DDBAF1300F03D0B9F16B
:1005C000000F26D032E0A969761E01987F1C44F402
:1005D00000748847002E824605DDBAF1780F06D0F8
:1005E000BAF1580F03D0B9F1000F10D01EE0B9F1E5
:1005F000000F02D0B9F1100F18D1A969761E019829
:100600007F1C24F4007488478246102002E00820F2
:1006100000E00A20814609E0A96908FB0908761E66
:1006200001987F1C44F4007488478246002E05DD43
:100630004946504600F002F90028EDDAE9690198D0
:100640008847A00502D46FF00100A8E7E00725D194
:10065000600613D5600502D5C8F1000000E04046F1
:1006600029680A1D2A600968220501D5087015E06D
:10067000220701D5088011E008600FE02868011DFD
:1006800029600068210502D580F8008006E0210776
:1006900002D5A0F8008001E0C0F8008038467EE76F
:1006A000014A00F00FB900002C000020032A40F29C
:1006B000308010F0030C00F0158011F8013BBCF104
:1006C000020F624498BF11F801CB00F8013B38BF1C
:1006D00011F8013BA2F1040298BF00F801CB38BF2A
:1006E00000F8013B11F0030300F00E81083AC0F05E
:1006F000088051F8043B083A51F804CBA0E80810F0
:10070000F5E7121D5CBF51F8043B40F8043BAFF322
:100710000080D20724BF11F8013B11F801CB48BF7C
:1007200011F8012B24BF00F8013B00F801CB48BFB2
:1007300000F8012B70474FF000020429C0F012802E
:1007400010F0030C00F01B80CCF1040CBCF1020F84
:1007500018BF00F8012BA8BF20F8022BA1EB0C0159
:1007600000F00DB85FEAC17C24BF00F8012B00F84F
:10077000012B48BF00F8012B70474FF0000200B575
:10078000134694469646203922BFA0E80C50A0E8B4
:100790000C50B1F12001BFF4F7AF090728BFA0E862
:1007A0000C5048BF0CC05DF804EB890028BF40F82E
:1007B000042B08BF704748BF20F8022B11F0804F70
:1007C00018BF00F8012B704770477047704770479B
:1007D00010B500F0CBF8006810BD10B5044600F06D
:1007E000C5F8046010BD000001694A1C0261087868
:1007F000704700B58FB0CDE9013100210591054961
:100800007944CDE9031011466846FFF7C1FD0FB0EA
:1008100000BD0000E5FFFFFF074B70B50D467B44B0
:10082000FFF7E7FF0446284600F068FA10B14FF0E2
:10083000FF3070BD204670BDE72300003A2800D28B
:10084000303820F02002412A01D3A2F1370088423B
:1008500001D34FF0FF3070470268114413780160F4
:1008600018467047D160054979445161044979447B
:10087000116200211161114600F086B8EDFFFFFF03
:1008800003010000426842B1016811F8013B23B145
:10089000521EC0E90012184670470121C160881E2F
:1008A000704742685AB1C368016843B983688B4294
:1008B00005D0491E521CC0E90012002070474FF0BD
:1008C000FF3070472DE9F04115460E46040002D175
:1008D0002C6804B90BA4204600F024FA04442078C4
:1008E00070B127463146384600F00CFA04442078AF
:1008F00010B1002004F8010B38462C60BDE8F081EF
:100900000027F9E70000000010B5203AC0F00B8086
:10091000B1E81850203AA0E81850B1E81850A0E803
:100920001850BFF4F5AF5FEA027C24BFB1E818505D
:10093000A0E8185044BF18C918C0BDE810405FEACD
:10094000827C24BF51F8043B40F8043B08BF704749
:10095000D20728BF31F8023B48BF11F8012B28BF4E
:1009600020F8023B48BF00F8012B70470048704751
:100970005814002010B5044600F00CFA0068005D21
:1009800000F0010010BD00002DE9F34F4FF0000A08
:100990000C4656468DB001200C9001F10C000B90D6
:1009A00062690B9801219047051E2DD0252D2CD072
:1009B000216A8847C0B162690B9801219047216A7A
:1009C00088470028F7D16269411E0B98904700E0E4
:1009D000761CA1690D988847216A88470028F7D1BD
:1009E000E1690D988847DBE7A1690D988847A8421F
:1009F000074601D1761CD3E7E1690D9888477F1C33
:100A000002D1BAF1000F6FD06BE162690B98002739
:100A10003D46394690472A2804D162690B98012146
:100A200090470125DFF8D08262690B980121904739
:100A3000A0F130010A290AD24745E5DC07EB87011E
:100A400000EB4107303FDFD445F01005ECE7E90645
:100A500001D46FF000476C280AD04C2814D06828C5
:100A600015D06A280DD074281CD07A281AD01DE021
:100A700062690B98012190476C2802D045F004056B
:100A800014E045F002050DE045F020050AE062693A
:100A90000B9801219047682802D045F0080505E031
:100AA00045F4006562690B9801219047C4E901573C
:100AB00065283DD019DC58287AD00CDC452837D081
:100AC00004DC252826D041289ED131E046282FD0AD
:100AD000472899D12CE05B2877D0612828D063285B
:100AE0007CD0642823D15AE0F6E06F2848D008DC97
:100AF00066281DD067281BD0692821D06E2816D102
:100B000027E0702845D0732868D0752847D078280A
:100B10000DD14DE0A1690D988847252805463FF481
:100B200069AFE1690D9888476D1C3FF46AAFD8E062
:100B30000D9923466A466FF00100AFF30080C5E0CF
:100B400045F0400023464FF000026060A80736D40D
:100B50003EE0E8077FF447AF2068011D2160006890
:100B6000290501D506701BE7290701D5068017E77F
:100B7000A90703D5F117C0E9006111E706600FE787
:100B800045F0400023464FF008026060A80716D4E5
:100B90001EE040F60E0125EA0100606016E045F017
:100BA000400023464FF00A026060A80707D40FE018
:100BB00045F040006060A80708D5234610220D9933
:100BC0006FF00100AFF3008080E007E010222346C1
:100BD0000D996FF00100FFF7BDFC77E04FF00009C1
:100BE00063284F46C8464B46CB4602D05B2806D00A
:100BF00038E0E80601D40120A060012732E06269F4
:100C0000D4F80CB00B98012190475E2807D14FF023
:100C1000010949466269D4F80CB00B9890472169E4
:100C200039B900210A4603AB43F82120491C0829A1
:100C3000FADBD8B3216949B308F1010862690B985E
:100C4000012190475D28F4D1B9F1000F09D00020AF
:100C500003A951F82020D24341F82020401C082845
:100C6000F7DB03AB2069002820794FEA40701ED0E3
:100C70005B462246CDF80080CDE901970D9900280A
:100C80006FF0010020DAAFF300801FE0C11703AA64
:100C900000EBD1614B1121F01F0102EB8302411ADD
:100CA00013680120884003431360C7E719E00D99DA
:100CB000224600286FF00100009702DAAFF30080AF
:100CC00004E0AFF3008001E0AFF3008000280ADA0F
:100CD000401C06D10C9820B14FF0FF300FB0BDE89A
:100CE000F08F5046FAE7E90701D10AF1010A0644FC
:100CF00000200C9054E60000CCCCCC0C007B00F023
:100D00008000704730B503461D781DB10A4603E0E8
:100D1000AC4201D1181A30BD12F8014B002CF7D1AA
:100D20005B1CF1E730B503461D783DB10A4612F869
:100D3000014B1CB1AC42FAD15B1CF5E7181A30BD6F
:100D400000487047581400207546FFF7F9FFAE467B
:100D500005006946534620F00700854618B020B5C7
:100D6000FFF780FABDE820404FF000064FF0000783
:100D70004FF000084FF0000B21F00701AC46ACE843
:100D8000C009ACE8C009ACE8C009ACE8C0098D46B0
:100D90007047000010B500F005F8001D10BD00BF41
:100DA00011230000004870477814002010B5044655
:100DB000AFF300802046BDE81040FFF73FBA0000C7
:100DC0004FF0013C50F8042B51F8043B9A4221D1DA
:100DD000A2EB0C03934313EACC1317D150F8042B66
:100DE00051F8043B9A4215D1A2EB0C03934313EA4A
:100DF000CC130BD150F8042B51F8043B9A4209D183
:100E0000A2EB0C03934313EACC13DBD04FF00000AA
:100E1000704700BFD01A01BAB1FA81F101F0180190
:100E200022FA01F0CB40C1F12001DBB2C0B2C01AFE
:100E30002CFA01F3D11A914311EAC311E6D170479C
:100E400000BFFEE7704772B600BFFEE7F8B5024686
:100E50000B460025002400200021C7E0012606FAE9
:100E600001F51E6806EA0504AC4274D11E7906F04D
:100E70000306012E04D01E7906F00306022E13D1BC
:100E800090684F000326BE40B0434F00DE68BE406E
:100E900030439060506801268E40B0431E79C6F3FF
:100EA00000168E40304350601E7906F00306032E74
:100EB00009D0D0684F000326BE40B0434F009E6863
:100EC000BE403043D0601E7906F00306022E13D1D7
:100ED000CF0802F1200656F827004E07F70E0F261E
:100EE000BE40B0434F07FF0E1E69BE403043CF08DF
:100EF00002F1200646F8270010684F000326BE4086
:100F0000B0431E7906F003064F00BE403043106028
:100F10005E6806F44036002E67D000BF00260096BB
:100F2000344E366846F48046324F3E603E46366860
:100F300006F48046009600BF00BF2F4E8F0856F87B
:100F400027008E07370F0F26BE40B0432B4EB2420C
:100F500002D1002615E048E0294EB24201D1012617
:100F60000FE0284EB24201D102260AE0264EB242DC
:100F700001D1032605E0254EB24201D1042600E04E
:100F800007268F073F0FBE4030431B4E8F0846F8A1
:100F900027001F4E3068A0435E6806F4801606B135
:100FA00020431B4E3060361D3068A0435E6806F457
:100FB000001606B12043164E361D3060144E361F03
:100FC0003068A0435E6806F4003606B12043104E38
:100FD000361F3060361F3068A0435E6806F48036E6
:100FE00006B120430A4E083E3060491C1029FFF428
:100FF00035AFF8BD443802400838014000000240D7
:101000000004024000080240000C024000100240B0
:10101000083C01400AB1816101E00B048361704723
:10102000014800687047000008000020034800687D
:101030000349097808440149086070470800002006
:101040001000002010B50D48006840F400700B49F6
:1010500008600846006840F4806008600846006840
:1010600040F480700860032000F0A6F80F2000F024
:1010700007F800F02BF8002010BD0000003C0240F3
:1010800070B504460E4800784FF47A71B1FBF0F069
:101090000C490968B1FBF0F5284600F0D7FC08B10F
:1010A000012070BD102C07D200222146501E00F0F6
:1010B00045F80548046001E00120F2E70020F0E770
:1010C00010000020140000200C00002008B500BF14
:1010D000002000900E48006840F480400C490860F1
:1010E0000846006800F48040009000BF00BF00BFC9
:1010F00000200090081F006840F08050091F086021
:101100000846006800F08050009000BF00BF08BD96
:10111000443802400146084600280DDB00BF00BFEE
:1011200000F01F0301229A4043099B0003F1E023D2
:10113000C3F8002100BF00BF00BF70472DE9F05F7A
:1011400080460D461646002701F0C4F90746394689
:101150002A46334601F00700C0F1070ABAF1040F2E
:1011600002D94FF0040A01E0C0F1070AD14600F1AC
:10117000040ABAF1070F02D24FF0000A01E0A0F111
:10118000030AD4464FF0010A0AFA09FAAAF1010A41
:101190000AEA020A0AFA0CFA4FF0010B0BFA0CFBEE
:1011A000ABF1010B0BEA030B4AEA0B042146404664
:1011B00001F098F9BDE8F09F00BF00F00702064B70
:1011C00019684FF6FF031940044B0B4343EA022111
:1011D000014B196000BF70470CED00E00000FA05FC
:1011E00070B504460D460CB9012070BD5848006822
:1011F00000F00700A84209D255490D700846006862
:1012000000F00700A84201D00120EEE7207800F0AE
:10121000020002281DD1207800F00400042805D126
:101220004C48006840F4E0504A490860207800F0DB
:101230000800082805D14748006840F46040454947
:1012400008604448006820F0F000A1680843414964
:101250000860207800F00100A8B36068012807D179
:101260003C4808380068C0F34040B8B90120BCE7EA
:101270006068022802D06068032807D13548083822
:101280000068C0F3406048B90120AEE73148083833
:101290000068C0F3400008B90120A6E72D480068A7
:1012A00020F00300616808432A490860FFF7B8FE90
:1012B000064609E0FFF7B4FE801B41F28831884200
:1012C00002D9032091E707E02248006800F00C00F3
:1012D0006168B0EB810FEDD11D48006800F0070098
:1012E000A84209D91A490D700846006800F00700A5
:1012F000A84201D0012078E7207800F004000428FB
:1013000007D11448006820F4E050E168084311490F
:101310000860207800F00800082808D10D4800680F
:1013200020F46040216940EAC1000A49086000F0E9
:101330003FF808490968C1F30311074A515CC840E6
:101340000649086006480068FFF79AFE00204CE74F
:10135000003C024008380240E6300008140000203B
:101360000C000020014800687047000014000020B5
:1013700000B5FFF7F7FF04490968C1F38221034A6A
:10138000515CC84000BD000008380240F63000083B
:1013900000B5FFF7E7FF04490968C1F34231034A8A
:1013A000515CC84000BD000008380240F63000081B
:1013B0002DE9F047002400250026A14625480068B5
:1013C00000F00C0020B1042805D008283AD105E02F
:1013D000DFF8849039E0DFF8849036E01D48001F84
:1013E000006800F03F041B48001F006800F4800004
:1013F00078B11A481749091F0968C1F38811A0FB81
:1014000001700146224600233846FEF73EFF05469E
:101410000EE011480F49091F0968C1F38811A0FBAC
:1014200001700146224600233846FEF72EFF05468E
:101430000848001F0068C0F30140401C4600B5FB8F
:10144000F6F902E0DFF8109000BF00BF4846BDE8A3
:10145000F0870000083802400024F40040787D0145
:10146000F8B504460CB90120F8BD207800F0010061
:10147000002874D0F948006800F00C0004280DD052
:10148000F648006800F00C00082813D1F348001F4C
:10149000006800F48000B0F5800F0BD1EF480838E9
:1014A0000068C0F34040002859D06068002856D139
:1014B0000120D9E700BF6068B0F5803F08D1E74858
:1014C0000838006840F48030E449083908601EE0BC
:1014D0006068B0F5A02F0DD1E0480838006840F4EE
:1014E0008020DE49083908600846006840F48030F2
:1014F00008600CE0D9480838006820F48030D749EB
:10150000083908600846006820F48020086000BFA1
:10151000606890B1FFF784FD054606E0FFF780FDA7
:10152000401B642801D903209EE7CC480838006896
:10153000C0F340400028F1D011E0FFF771FD0546EF
:1015400006E0FFF76DFD401B642801D903208BE7FF
:10155000C24808380068C0F340400028F1D1207824
:1015600000F0020002285FD1BC48006800F00C00C7
:1015700058B1BA48006800F00C0008281CD1B748E0
:10158000001F006800F48000B0B9B4480838006853
:10159000C0F3400020B1E068012801D0012063E7DA
:1015A000AE480838006820F0F800216940EAC10020
:1015B000AA490839086037E0E06800B30120A8496B
:1015C0000860FFF72DFD054606E0FFF729FD401BEB
:1015D000022801D9032047E7A04808380068C0F373
:1015E00040000028F1D09D480838006820F0F8003D
:1015F000216940EAC10099490839086014E00020D7
:1016000097490860FFF70CFD054606E0FFF708FD67
:10161000401B022801D9032026E7904808380068BB
:10162000C0F340000028F1D1207800F0080008281D
:101630002CD16069A8B101208A490860FFF7F0FC4D
:10164000054606E0FFF7ECFC401B022801D9032009
:101650000AE782486C300068C0F340000028F1D0EF
:1016600014E000207F490860FFF7DAFC054606E039
:10167000FFF7D6FC401B022801D90320F4E6774887
:101680006C300068C0F340000028F1D1207800F0F1
:101690000400042870D1002770483830006800F03A
:1016A000805090B900BF002000906C48383000682E
:1016B00040F080506949383108600846006800F001
:1016C0008050009000BF00BF01276748006800F409
:1016D0008070B0B96448006840F480706249086066
:1016E000FFF79EFC054606E0FFF79AFC401B022828
:1016F00001D90320B8E65C48006800F48070002837
:10170000F2D000BFA068012808D1544868300068B2
:1017100040F001005149683108601DE0A0680528CB
:101720000DD14E486830006840F004004B496831E4
:1017300008600846006840F0010008600CE0474877
:101740006830006820F001004449683108600846AC
:10175000006820F00400086000BFA068A8B1FFF78F
:101760005FFC054609E0FFF75BFC401B41F2883156
:10177000884202D9032077E626E0384868300068BE
:10178000C0F340000028EED013E0FFF749FC054607
:1017900008E0FFF745FC401B41F28831884201D93F
:1017A000032061E62D4868300068C0F3400000283F
:1017B000EFD1012F07D129483830006820F0805040
:1017C00026493831086000BFA069002845D0234869
:1017D000006800F00C0008285DD0A069022845D1FF
:1017E00000201F490866FFF71BFC054606E0FFF7CF
:1017F00017FC401B022801D9032035E6174808389A
:101800000068C0F340600028F1D1D4E90701084323
:10181000616A40EA81110122A06AC2EB500041EAEC
:1018200000412C20005D41EA00600C49091F08605E
:1018300001200B490866FFF7F3FB054606E0FFF7BA
:10184000EFFB401B022801D903200DE603480838AE
:101850000068C0F340600028F1D049E00838024039
:1018600000004742800E474200700040002021499E
:101870000866FFF7D5FB054606E0FFF7D1FB401BE6
:10188000022801D90320EFE51B480068C0F340603F
:101890000028F2D12CE0A069012800D1E4E5164827
:1018A000001D0668A069012820D006F48001E069C7
:1018B00081421BD106F03F01206A814216D147F6D2
:1018C000C0703040616AB0EB811F0FD106F4403127
:1018D0000122A06AC2EB5000B1EB004F06D106F026
:1018E00070612C20005DB1EB006F01D00120BBE5E1
:1018F0000020B9E5000047420038024010B5044618
:101900000CB9012010BD606A38B96068B0F5827FFB
:1019100000D105E00021E16102E000212161616167
:101920000021A16294F8510028B9002084F85000E9
:10193000204600F047F8022084F851002068006833
:1019400020F0400021680860A08800F4827021899E
:1019500001F404410843A18901F400610843217C9A
:1019600001F002010843217D01F001010843218BB0
:1019700001F400710843217F01F038010843202160
:10198000095D01F080010843218D01F400510843F5
:10199000216808600421A06901EA104094F824102D
:1019A00001F010010843216848602068C06920F4F4
:1019B00000602168C86100206065012084F8510042
:1019C00000209FE710B586B00446142101A8FEF759
:1019D000D4FE1B49206888422FD100BF0020009010
:1019E0001848006840F480501649086008460068AE
:1019F00000F48050009000BF00BF00BF00200090A6
:101A000010481438006840F001000E49143908608D
:101A10000846006800F00100009000BF00BFA02051
:101A200001900220029000200390032004900520E2
:101A3000059001A90448FFF709FA06B010BD00009F
:101A400000300140443802400000024070B50446B6
:101A50002546681EB0F1807F01D301200FE0681E8B
:101A60004FF0E02148610F214FF0FF3000F03AFDC8
:101A700000204FF0E021886107200861002070BD40
:101A800010B504460CB9012010BDA06900B100E0FA
:101A900000BF94F8410028B9002084F84000204697
:101AA00000F02AF8242084F841002068C06820F45F
:101AB00000502168C860204600F09CFA2068006948
:101AC00020F49040216808612068406920F02A00D5
:101AD000216848612068C06840F400502168C860EF
:101AE00000206064202084F8410084F84200002037
:101AF000606300BFC8E7000010B586B0044614213B
:101B000001A8FEF73AFE36492068884231D100BF6D
:101B1000002000903348006840F010003149086010
:101B20000846006800F01000009000BF00BF00BF32
:101B3000002000902B481438006840F0010029492B
:101B4000143908600846006800F00100009000BFEA
:101B500000BF4FF4C060019002200290002003906B
:101B6000032004900720059001A91F48FFF76EF994
:101B700034E01E492068884230D100BF0020009028
:101B80001848006840F020001649086008460068C0
:101B900000F02000009000BF00BF00BF00200090B8
:101BA00010481438006840F001000E4914390860EC
:101BB0000846006800F00100009000BF00BF4FF42D
:101BC000C050019002200290002003900320049056
:101BD0000820059001A90448FFF738F906B010BDA8
:101BE000001001404438024000000240001401404F
:101BF00000BFFEE700B587B0142102A8FEF7BDFDC7
:101C000000BF002001903B48006840F004003949C3
:101C100008600846006800F00400019000BF00BFA3
:101C200000BF002001900846006840F08000086076
:101C30000846006800F08000019000BF00BF00BFB0
:101C4000002001900846006840F001000860084646
:101C5000006800F00100019000BF00BF00BF00203D
:101C600001900846006840F00200086008460068DD
:101C700000F00200019000BF00BF012251031E4886
:101C8000FFF7C8F9002251211C48FFF7C3F90122D0
:101C900008211A48FFF7BEF900224FF48061184866
:101CA000FFF7B8F94FF40050029001200390002094
:101CB0000490059002A91048FFF7C8F85920029037
:101CC00001200390002004900320059002A90B48F6
:101CD000FFF7BCF84FF480600290012003900020D1
:101CE00004900320059002A90548FFF7AFF807B05C
:101CF00000BD0000303802400008024000000240F1
:101D00000004024010B50E480E4908604FF482707E
:101D1000486000210B488160C160016141614FF45E
:101D2000007181610821C16100210162416281620B
:101D30000A21C162FFF7E2FD08B1FFF784F810BD88
:101D4000003001404801002010B50B480B490860E5
:101D50004FF4E1304860002108488160C1600161B2
:101D60000C21416100218161C161FFF789FE08B149
:101D7000FFF769F810BD000000100140A00100202D
:101D800010B50B480B4908604FF4E1304860002162
:101D900008488160C16001610C21416100218161BD
:101DA000C161FFF76DFE08B1FFF74DF810BD0000EF
:101DB00000140140E801002000BFFEE700BFFEE77D
:101DC0007047704710B5FFF731F910BD00B593B0FB
:101DD000302107A8FEF7D1FC142102A8FEF7CDFCA4
:101DE00000BF002001902448006840F08050224944
:101DF00008600846006800F08050019000BF00BFF6
:101E000000BF002001901D48006820F4404040F4CD
:101E100000401A4908600846006800F440400190FC
:101E200000BF00BF012007900004089002200D9021
:101E300041050E9119210F91A821109102211191B4
:101E40000421129107A8FFF70BFB08B1FEF7FBFF77
:101E50000F20029002200390002004904FF4805045
:101E6000059000200690022102A8FFF7B9F908B1F9
:101E7000FEF7E9FF13B000BD40380240007000409B
:101E80000348006840F47000014908607047000092
:101E900088ED00E0014840687047000030020020F3
:101EA00001480088704700003002002010B5012270
:101EB00011462520FFF742F92520FFF72BF90F489F
:101EC000C06820F080000D49C8600846C06840F036
:101ED0002000C8600846C06840F01000C8606FF07D
:101EE000F00008600846C06840F40050C86004482C
:101EF000044948600448886010BD0000001001409B
:101F000044020020300200204404002070B5024644
:101F1000002013E0145C104B9D899B895B1C0E4EC6
:101F2000B38133469B685C5533469B89B3F5006F9C
:101F300002D100233446A381431C98B28842E9DBD6
:101F40000648C06800F0800028B90448C06840F026
:101F50008000024BD86070BD3002002000100140AC
:101F60000020014908807047440C00200148406867
:101F700070470000440C00200148008870470000B2
:101F8000440C002010B5012211464720FFF7D6F877
:101F90004720FFF7BFF81048006820F080000E4986
:101FA00008600846006840F02000086008460068A5
:101FB00040F0100008606FF0F00007490C3908602D
:101FC0000548006840F4005003490860034804498C
:101FD00048600448886010BD0C140140580C002073
:101FE000440C0020580E0020014908617047000091
:101FF000440C00202DE9F84F04462068006920F4C5
:102000004050E1680843216808612169A0680843DD
:1020100061690843E169084300902068C06849F29B
:102020000C618843009908432168C86020684069B2
:1020300020F44070A169084321684861764920680E
:10204000884203D075492068884203D1FFF7A0F980
:10205000814602E0FFF78CF98146E069B0F5004F58
:102060006CD102206168A0FB015003461920A9FB36
:10207000007001462A463846FEF707F96421B0FB96
:10208000F1F04FEA001A02206168A0FB01510B46F3
:102090001920A9FB00712A463846FEF7F6F8834658
:1020A00002206168A0FB015003461920A9FB0071C2
:1020B0002A463846FEF7E9F86421B0FBF1F000EB60
:1020C000C00101EB0010ABEB8000322101EBC0003E
:1020D0006421B0FBF1F000F0F8000AEB400A0220A6
:1020E0006168A0FB015003461920A9FB007001465E
:1020F0002A463846FEF7C9F8834602206168A0FBED
:10210000015003461920A9FB00712A463846FEF704
:10211000BCF86421B0FBF1F000EBC00101EB001052
:10212000ABEB8000322101EBC0006421B0FBF1F089
:1021300000F007005044216888606AE0042061686C
:10214000A0FB015003461920A9FB007001462A4656
:102150003846FEF79AF8824604206168A0FB0150D9
:1021600003461920A9FB007001462A463846FEF7AF
:102170008CF86421B0FBF1F000EBC00101EB001022
:10218000AAEB8000322101EB00106421B0FBF1F0DA
:1021900000F0F00A04206168A0FB017003461920DA
:1021A000A9FB00513A462846FEF76FF86421B0FBC0
:1021B000F1F00AEB001A04206168A0FB01510B4604
:1021C0001920A9FB00712A463846FEF75EF88346BF
:1021D00004206168A0FB015003461920A9FB007090
:1021E00001462A463846FEF750F86421B0FBF1F06C
:1021F00000EBC00101EB0010ABEB8000322101EBE2
:1022000000106421B0FBF1F000F00F005044216891
:102210008860BDE8F88F0000001001400014014004
:1022200070B53A48006800F0800020B33748C068B5
:1022300000F08000F8B13648C189C089401C344A9A
:10224000D08110468068405C304948601046C089A3
:10225000B0F5006F02D100201146C8812C48C0891A
:102260002B498989884205D12848C06820F0800020
:102270002649C86070BD2548006800F02000B0B154
:1022800024480088B0F5007F05DB23A0FEF774F832
:102290001E484068EEE71D484068C1B21D480288EC
:1022A0000088401C1B4B18802B488154E2E71748DC
:1022B000006800F0100038B30020154908804FF482
:1022C000007248682449FEF7F1F912480088104965
:1022D000088000200F4908804FF400711E48FEF767
:1022E0004CFA0B48006950B1FFF7DAFD0446FFF7DE
:1022F000D1FD054606482146026928469047034815
:10230000006802484068B5E700BFB3E7001001402D
:102310003002002028000020E8ADA6E5918AEFBC3D
:102320009A5541525431E58D95E5B8A7E68EA5E65C
:1023300094B6E9878FEFBC8CE5B7B2E8B685E58740
:10234000BAE68EA5E694B6E7BC93E5AD98E5A4A7FA
:10235000E5B08F5C6E2100005810002070B53E483B
:10236000006800F0800040B33B480C30006800F08B
:10237000800010B33948C189C089401C374AD081D8
:1023800010468068405C3449091D08601046C089C9
:10239000B0F5007F02D100201146C8812F48C089C6
:1023A0002E498989884207D12B480C30006820F0DB
:1023B000800029490C31086070BD2748006800F092
:1023C0002000C0B126480088B0F5007F06DB25A0BC
:1023D000FDF7D2FF2048001D0068EDE71E48001DF4
:1023E0000068C1B21E4802880088401C1C4B18803F
:1023F0002C488154E0E71848006800F0100040B312
:102400000020164908804FF4007248682549FEF7FD
:102410004DF91348008811490880002010490880B0
:102420004FF400711F48FEF7A8F90C48006950B13D
:10243000FFF7A2FD0446FFF799FD05460748214630
:10244000026928469047044800680348001D006858
:10245000B2E700BFB0E7000000140140440C0020C8
:102460002A000020E8ADA6E5918AEFBC9A554152BA
:102470005436E58D95E5B8A7E68EA5E694B6E987CE
:102480008FEFBC8CE5B7B2E8B685E587BAE68EA5D6
:10249000E694B6E7BC93E5AD98E5A4A7E5B08F5CFC
:1024A0006E2100005812002000BFFEE74100080224
:1024B00018BF04200A0E18BF40F001004FF07F4201
:1024C00032EA010108BF40F00200012808BF0520E0
:1024D0007047000002480068C0F302207047000007
:1024E0000CED00E010B5002804DB0A07130E054AC6
:1024F000135406E00A07140E034A00F00F031B1FD3
:10250000D45410BD00E400E018ED00E010EE101A05
:1025100008B5444A6846B2EB410F28D94FF0E6406F
:10252000B0EB410F94BF00204FF0FF3000900098B7
:10253000002861DB60EE000A10F0010F45D010F0BA
:10254000020FDFED391A9FED391A00EEE11ADFEDC7
:10255000381A40EE811A21EEA01AF0EE400A40EE41
:10256000010A08BFF1EE600AB0EE600A08BD314B07
:1025700021F0004293423CD911F0004FDFED2E0ACA
:1025800020EE201ADFED2D0A19BF31EE601A71EE30
:10259000200A31EE201A71EE600ABDEEE01A11EE4B
:1025A000100A9FED271A00F0030000EEC10A9FED0C
:1025B000251A009000EEC10A9FED231A00EEC10A11
:1025C0009FED221A00EEC10AB1E79FED211A9FED9F
:1025D000210A10F0020F00EE810A9FED1F1A00EE93
:1025E000801AB7EE000A00EE810A18BFB1EE400A69
:1025F00008BD00F02BF99AE710EE100A4000B0F188
:102600007F4F3CBFB7EE000A08BD07D14FF0010075
:10261000FEF7E3F8BDE8084000F008B9BDE808405F
:1026200000F001B9B61F927E336D4C39DA82083C56
:10263000A0AA2ABE490E494683F9223F0000004B5A
:102640000000C93F00A0FD390020A2331A61342CDC
:10265000B93AB2BACA9F2A3DDDFFFFBE00B510EEFF
:10266000101A2DED028B81B0524A6846B2EB410F31
:102670002ED94FF0E640B0EB410F94BF00204FF051
:10268000FF3000900098B0EE408A00286ADB10F01E
:10269000010F4BD068EE080A9FED471A9FED470ADD
:1026A00000EE810A9FED461A10F0020F00EE801A2C
:1026B000B7EE000A00EE810A02BF01B0BDEC028B4A
:1026C00000BD00BF01B0B1EE400ABDEC028B00BD01
:1026D0003C4B21F00042934241D911F0004FDFED15
:1026E0003A0A20EE201ADFED390A19BF31EE601ADE
:1026F00071EE200A31EE201A71EE600ABDEEE01A8A
:1027000011EE100A9FED321A00F0030000EEC10A2C
:102710009FED301A009000EEC10A9FED2F1A00EED7
:10272000C10A9FED2E1A00EEC10AABE728EE080A97
:102730009FED2B1ADFED2B0A10F0020F40EE410A3D
:102740009FED291A00EE201A61EE000AB0EE480A49
:1027500008EE200AB6D101B0BDEC028B00BD00F03E
:1027600075F88FE718EE100A4000B0F17F4F0DD2D8
:1027700018EE100AFFF79AFE042808BF00F05EF872
:10278000B0EE480A01B0BDEC028B00BD09D10120BA
:10279000FEF723F801B0BDEC028B5DF804EB00F00E
:1027A00045B801B0B0EE480ABDEC028B5DF804EB11
:1027B00000F039B8B61F927EB93AB2BACA9F2A3D24
:1027C000DDFFFFBE490E494683F9223F0000004B62
:1027D0000000C93F00A0FD390020A2331A61342C4B
:1027E000336D4C39DA82083CA0AA2ABE10B52DED13
:1027F000028BB1EEC08A18EE100A20F00040C0F142
:10280000FF40C00F0AD010EE100A20F00040C0F1C7
:10281000FF40C00F04BF0120FDF7DFFFB0EE480A04
:10282000BDEC028B10BD30EE000A7047DFED020AEE
:1028300080EEA00A70470000000000009FED020A31
:1028400020EE000A70470000000000102DE9F001A2
:102850004FF07F42B2EB410F9FBF4FF0FF3101605D
:10286000BDE8F00170474FF0004242EA0123C1F396
:10287000C752783A551112F01F0C434CCCF1200688
:102880007C44C1F3C752A2F178024FEA621204EB12
:10289000820254F8254008BFD2E9015612D055688B
:1028A00004FA0CF425FA06F73C43976805FA0CF590
:1028B00027FA06F8D26807FA0CFCF24045EA080548
:1028C0004CEA0206A4FB034CA5FB0352A6FB0363E0
:1028D0001D449D4234BF012600261319334416B10E
:1028E000934202D903E0934201D2012200E0002288
:1028F000624402F1200C9206DC0C42EA443200EE03
:10290000102A5B03DFED210AF8EEC01A00EE103A40
:102910004FEA9C1C11F0004FB8EE400AC0F800C00E
:1029200020EE201A00EE105ADFED190AB8EE400A28
:1029300020EE200A71EE810A70EE800A10EE902AD5
:1029400002F500626FF30B0200EE902A70EEE11ABE
:1029500031EEC11ADFED101A30EE411A9FED0D0A6B
:1029600020EE800A01EE210A9FED0C1A00EE810A8A
:1029700004BFBDE8F0017047CCF180510160BDE8B3
:10298000F001B1EE400A70478C08000000000036EC
:102990000000802C22AAFD29DB0FC92F0000C92FBF
:1029A00030380A2801D2012070470020704700BF4C
:1029B0007047000000B512480068006840F0400011
:1029C0000F49096808600F48806940F480000D498C
:1029D00088610846806940F008008861012128204C
:1029E00000F03AF80321202000F036F801213820C9
:1029F00000F032F80021022000F02EF800BD0000A7
:102A0000480100200000024030B504460D46214632
:102A1000182000F021F82946192000F01DF8074879
:102A2000806940F400200549886100BF034880693F
:102A300040F008000149886130BD000000000240FC
:102A400030B504460D4605F5004291B204F500424A
:102A500090B2FFF7D9FF30BD174A926942F4801255
:102A6000154B9A61154A1268D06000BF134A12686C
:102A70009268C2F3C012002AF8D10A0A0F4B1B68F1
:102A8000DA6000BF0D4A12689268C2F3C012002AD1
:102A9000F8D1CAB2094B1B68DA6000BF074A126856
:102AA0009268C2F3C012002AF8D1034A926942F038
:102AB0001002014B9A61704700000240480100205B
:102AC0002DE9F0472DED028B05460F46144600F028
:102AD000CFF8291908B2394600F066F900F0DCF8A1
:102AE00001263EE000EE106AB8EEC00ADFED210AD2
:102AF00020EE200ADFED200A80EE201AB0EE418A97
:102B0000B0EE480AFFF702FDF0EE400A00EE105A60
:102B1000B8EEC01A00EE104AB8EE400A00EE201AD5
:102B2000BDEEC10A10EE100A0FFA80F8B0EE480AA6
:102B3000FFF794FDF0EE400A00EE107AB8EEC01AEE
:102B400000EE104AB8EE400A00EE201ABDEEC10AAF
:102B500010EE100A0FFA80F94946404600F024F9B9
:102B6000761C242EBEDD00F083F8BDEC028BBDE8A0
:102B7000F0870000DB0FC940000010422DE9FF5F25
:102B800006460F4614461D46204604EBD07106EB60
:102B900061010FFA81F8284605EBD07107EB61015E
:102BA0000FFA81F9204604EBD071A6EB61010FFA10
:102BB00081FACDF80C90CDF808A0284605EBD0712D
:102BC000A7EB61010FFA81FBCDF80480CDF800B0CE
:102BD00000F04EF84946404600F0E6F800F05CF898
:102BE0005046039900F0E0F85946029800F0DCF8EE
:102BF000DDE9001000F0D8F84946404600F0D4F86E
:102C000000F036F8BDE8FF9F13B50C460121684679
:102C1000FFF77CF900981CBD08B50146D1F8020009
:102C200000900878012802D002281DD107E0BDF8E5
:102C30000000CA88104400B2ADF8000015E0C88852
:102C400000EBD072BDF8003003EB620212B2ADF8B7
:102C50000020088900EBD072BDF8023003EB62025D
:102C600012B2ADF8022000E000BF00BF009808BD1E
:102C700010B50748007800B910BD00224FF48061FC
:102C80000448FEF7C7F900200149087000BFF3E7C8
:102C9000060000200004024010B507480078012813
:102CA00000D110BD012291020448FEF7B3F90120C2
:102CB0000149087000BFF4E706000020000402404C
:102CC00008B5FEF7BFF9FFF781F8FEF793FFFFF7AE
:102CD0003BF8FFF717F8FFF753F8FFF76BFE0122F9
:102CE00091022B48FEF796F9FFF7E0F8FFF74AF953
:102CF0002848FFF779F901202749087041F2883008
:102D0000488001462448818048002349C8803EE02D
:102D1000214C29E02046FFF77FFF00902078012812
:102D200002D002281DD113E01C48806940F0010048
:102D30001A498861E288B4F90410B4F90200FFF777
:102D4000BFFE1648806940F480301449886109E06C
:102D50002389E288B4F90410B4F90200FFF70EFFEA
:102D600000E000BF00BF0E3420780028D2D10C480C
:102D7000007858B18C220B490748FDF797FC8C214D
:102D80000848FDF7D8FC00200549087000BFBFE7E0
:102D900000040240C92E000830000020000002405C
:102DA00000000020BC0000202DE9F04F2DED048B29
:102DB00081B006460F464148B0F90000864209D16D
:102DC0003F48B0F90000874204D101B0BDEC048B4C
:102DD000BDE8F08F3948B0F90000301A00EE100A53
:102DE000B8EEC09A3648B0F90000381A00EE100A62
:102DF000B8EEC08A69EE090A48EE080AB0EE600A29
:102E0000FFF7F4FCF0EE408A9FED2E0AC8EE800A30
:102E1000BDEEE00A10EE100A441C00EE104AB8EEB7
:102E2000C00AC8EE809AB0EE000A29EE800ABCEE15
:102E3000C00A10EE108AB8F1000F01D14FF001085E
:102E40001E48B0F900901E48B0F900A001252DE001
:102E500000EE105AB8EEC00A69EE000A00EE104A01
:102E6000B8EEC00A80EE801ABDEEC10A10EE100A5C
:102E700048440FFA80FB00EE105AB8EEC00A68EE24
:102E8000000A00EE104AB8EEC00A80EE801ABDEECD
:102E9000C10A10EE100A504400B200905846009942
:102EA000FFF7CEFD404600F0ADF86D1CA542CFDD2A
:102EB000024806800248078000BF86E70200002023
:102EC000040000200000C8422DE9F04186B007460A
:102ED0008846FFF74BF806463EA13046FDF7E0FB7B
:102EE000044670E02078552803D101203A49087043
:102EF00064E02078302861DB207839285EDC207897
:102F0000A0F130056078432825D103A804AB05AAB9
:102F100032A10090A01CFDF7FFFA03281AD101206E
:102F2000C5EBC501314A02F81100BDF91400C5EB2B
:102F3000C50102EB41014880BDF91010C5EBC50089
:102F400002EB40008180BDF80C00C5EBC50102EB2F
:102F50004101C88031E0607852282ED102A803A92F
:102F600004AB05AACDE9001021A1A01CFDF7D4FAFD
:102F7000042821D10220C5EBC5011C4A02F811002A
:102F8000BDF91400C5EBC50102EB41014880BDF954
:102F90001010C5EBC50002EB40008180BDF80C00AD
:102FA000C5EBC50102EB4101C880BDF80810C5EBB7
:102FB000C50002EB4000018100BF00BF05A1002059
:102FC000FDF76EFB0446002C8CD1FEF7C9FF06B05E
:102FD000BDE8F0813B000000000000202C25686463
:102FE0002C2568642C25687500000000BC000020BA
:102FF0002C2568642C2568642C2568752C2568753B
:103000000000000001B5002046E00099B1F5617FA5
:1030100002D94FF4617100E0009908464FF0E021B9
:1030200089691F4A116011460968542202FB101178
:103030001C4A116011460968002912DB00BF4FF0DD
:10304000E0218969184A116011460968144A12681A
:1030500091421EDC14490968124A12689142EEDA64
:1030600017E010490968114A11440E4A116000BF67
:103070004FF0E02189690C4A116011460968084A3D
:1030800012689142F4DD08490968064A12689142C3
:10309000EEDA0099091A009100990029B5D108BD0E
:1030A000180000201C000020200000202048010003
:1030B00010B500290AD00878002807D005487844C0
:1030C000FDF77EFE002801D0002010BD02487844A4
:1030D00010BD0000920000008A0000004FF0407018
:1030E000E1EE100A7047000000000000000001023D
:1030F000030406070809000000000102030404009D
:1031000000080000000000000002000100001000A4
:10311000000000006E83F9A22915444ED15727FC08
:10312000C0DD34F5999562DB4190433CAB6351FEC1
:10313000603200080000002030000000D0010008CC
:103140009032000830000020881A0000EC010008CE
:103150001001000043000000F8FFFFFF0040404066
:10316000404040404040414141414140404040405A
:103170004040404040404040404040404005020206
:1031800002020202020202020202020202202020C5
:103190002020202020202002020202020202909021
:1031A000909090901010101010101010101010101F
:1031B0001010101010101010020202020202888873
:1031C000888888880808080808080808080808087F
:1031D0000808080808080808020202024000000067
:1031E00000000000000000000000000000000000DF
:1031F00000000000000000000000000000000000CF
:1032000000000000000000000000000000000000BE
:1032100000000000000000000000000000000000AE
:10322000000000000000000000000000000000009E
:10323000000000000000000000000000000000008E
:10324000000000000000000000000000000000007E
:10325000000000000000000000000000000000006E
:10326000000000000000020000000000100000004C
:10327000010000000024F400000000000000000035
:10328000000000000000000000000000000000003E
:040000050800019559
:00000001FF
