:020000040800F2
:10000000980C00204502000881250008B323000851
:100010007D250008BF0B0008B52C0008000000007B
:10002000000000000000000000000000872500081C
:10003000DF0C000800000000852500088925000865
:100040005F0200085F0200085F0200085F0200080C
:100050005F0200085F0200085F0200085F020008FC
:100060005F0200085F0200085F0200085F020008EC
:100070005F0200085F0200085F0200085F020008DC
:100080005F0200085F0200085F0200080000000035
:100090000000000000000000000000005F020008F7
:1000A0005F0200085F0200085F0200085F020008AC
:1000B0005F0200085F0200085F0200085F0200089C
:1000C0005F0200085F0200085F0200085F0200088C
:1000D0005F020008A52C00085F0200080000000075
:1000E0005F0200085F0200085F02000800000000D5
:1000F0000000000000000000000000005F02000897
:10010000000000005F0200085F0200085F020008B4
:1001100000000000000000000000000000000000DF
:100120005F0200085F020008C50B00085F020008BC
:100130005F02000800000000000000000000000056
:100140000000000000000000000000005F02000846
:100150005F0200085F0200085F0200085F020008FB
:100160005F0200085F0200080000000000000000BD
:10017000000000000000000000000000000000007F
:10018000000000005F020008000000000000000006
:100190005F02000800F002F800F045F80AA090E8BD
:1001A000000C82448344AAF10107DA4501D100F032
:1001B0003AF8AFF2090EBAE80F0013F0010F18BFBA
:1001C000FB1A43F001031847443500006435000072
:1001D000103A24BF78C878C1FAD8520724BF30C873
:1001E00030C144BF04680C60704700000023002445
:1001F00000250026103A28BF78C1FBD8520728BF37
:1002000030C148BF0B6070471FB503F059FA00F0CA
:100210008BFC04000020002103F03CFA401C6060CD
:100220001FBD10B510BD00F047FC1146FFF7ECFFF5
:1002300003F010F900F06EFC03B4FFF7F2FF03BC0B
:1002400000F076FC0948804709480047FEE7FEE7D2
:10025000FEE7FEE7FEE7FEE7FEE7FEE7FEE7FEE776
:1002600004480549054A064B70470000452600082A
:100270009501000898060020980C0020980800209E
:100280009808002053EA020C00F069802DE9F04B39
:100290004FF00006002B1FBFB3FA83F503FA05F4F5
:1002A00024FA05F65E4012BF1643B2FA82F502FA4E
:1002B00005F4C5F120051EBF22FA05FC44EA0C0432
:1002C000203556EA044C4FEA144418BF641C4FF022
:1002D00000084FF00009904271EB030C39D300295C
:1002E00019BFB1FA81F701FA07F6B0FA80F700FA00
:1002F00007F6C7F120071EBF20FA07FC46EA0C06E6
:100300002037B6FBF4FCA7EB0507103F07F01F0BE7
:10031000CBF120060CFA0BFB2CFA06F644BFB346D1
:100320000026202FA4BF5E464FF0000B5BEA060CB0
:1003300008BF4FF0010B19EB0B09ABFB027C48EB3C
:100340000608C01B06FB02CC0BFB03CC71EB0C01B7
:10035000C1E70B46024641464846BDE8F08B13B55F
:100360004FF000004FF00001AFF30080BDE81C40EB
:10037000704700000FB400B58DB010A9099000912E
:100380000B904FF0FF300A9000200C900648784404
:100390000690064878446A4607900F9909A800F02D
:1003A0005DF90DB05DF814FBEB02000003030000E3
:1003B0002DE9FF5F1D464FF0FF3B91464FF00008CF
:1003C0005F46D5E90146A96901987F1C8847296ADB
:1003D000824688470028F6D1BAF1FF3F0CD0002EA4
:1003E00024F4C06419DD600614D5BAF12B0F09D0CE
:1003F000BAF12D0F0ED103E0584604B0BDE8F09FCE
:1004000044F48064A96901987F1C8847761E82465F
:10041000002E02DDBAF1300F03D0B9F1000F26D063
:1004200032E0A969761E01987F1C44F40074884765
:10043000002E824605DDBAF1780F06D0BAF1580FCA
:1004400003D0B9F1000F10D01EE0B9F1000F02D0B7
:10045000B9F1100F18D1A969761E01987F1C24F4F8
:10046000007488478246102002E0082000E00A203D
:10047000814609E0A96908FB0908761E01987F1CDE
:1004800044F4007488478246002E05DD49465046F4
:1004900000F0D0F80028EDDAE96901988847A00556
:1004A00002D46FF00100A8E7E00725D1600613D55C
:1004B000600502D5C8F1000000E0404629680A1D29
:1004C0002A600968220501D5087015E0220701D5C8
:1004D000088011E008600FE02868011D29600068AD
:1004E000210502D580F8008006E0210702D5A0F89A
:1004F000008001E0C0F8008038467EE7032A40F221
:10050000308010F0030C00F0158011F8013BBCF1B5
:10051000020F624498BF11F801CB00F8013B38BFCD
:1005200011F8013BA2F1040298BF00F801CB38BFDB
:1005300000F8013B11F0030300F0C080083AC0F05E
:10054000088051F8043B083A51F804CBA0E80810A1
:10055000F5E7121D5CBF51F8043B40F8043BAFF3D4
:100560000080D20724BF11F8013B11F801CB48BF2E
:1005700011F8012B24BF00F8013B00F801CB48BF64
:1005800000F8012B70474FF000020429C0F01280E0
:1005900010F0030C00F01B80CCF1040CBCF1020F36
:1005A00018BF00F8012BA8BF20F8022BA1EB0C010B
:1005B00000F00DB85FEAC17C24BF00F8012B00F801
:1005C000012B48BF00F8012B70474FF0000200B527
:1005D000134694469646203922BFA0E80C50A0E866
:1005E0000C50B1F12001BFF4F7AF090728BFA0E814
:1005F0000C5048BF0CC05DF804EB890028BF40F8E0
:10060000042B08BF704748BF20F8022B11F0804F21
:1006100018BF00F8012B704770477047704710B53E
:1006200000F07EF8006810BD10B5044600F078F8C0
:10063000046010BD3A2800D2303820F02002412A50
:1006400001D3A2F13700884201D34FF0FF30704749
:10065000026811441378016018467047D16005495B
:1006600079445161044979441162002111611146B4
:1006700000F064B8EDFFFFFFBF000000426842B128
:10068000016811F8013B23B1521EC0E9001218465F
:1006900070470121C160881E704742685AB1C36823
:1006A000016843B983688B4205D0491E521CC0E9DA
:1006B0000012002070474FF0FF30704710B5203A0D
:1006C000C0F00B80B1E81850203AA0E81850B1E80B
:1006D0001850A0E81850BFF4F5AF5FEA027C24BFC1
:1006E000B1E81850A0E8185044BF18C918C0BDE8B8
:1006F00010405FEA827C24BF51F8043B40F8043B81
:1007000008BF7047D20728BF31F8023B48BF11F835
:10071000012B28BF20F8023B48BF00F8012B70478F
:10072000004870473806002010B5044600F0EAF98A
:100730000068005D00F0010010BD00002DE9F34FDE
:100740004FF0000A0C4656468DB001200C9001F186
:100750000C000B9062690B9801219047051E2DD06B
:10076000252D2CD0216A8847C0B162690B980121E0
:100770009047216A88470028F7D16269411E0B988B
:10078000904700E0761CA1690D988847216A884748
:100790000028F7D1E1690D988847DBE7A1690D983A
:1007A0008847A842074601D1761CD3E7E1690D9836
:1007B00088477F1C02D1BAF1000F6FD06BE16269EC
:1007C0000B9800273D46394690472A2804D1626994
:1007D0000B98012190470125DFF8D08262690B98C0
:1007E00001219047A0F130010A290AD24745E5DCF2
:1007F00007EB870100EB4107303FDFD445F01005E0
:10080000ECE7E90601D46FF000476C280AD04C28C9
:1008100014D0682815D06A280DD074281CD07A28E6
:100820001AD01DE062690B98012190476C2802D014
:1008300045F0040514E045F002050DE045F0200503
:100840000AE062690B9801219047682802D045F0C0
:10085000080505E045F4006562690B9801219047A1
:10086000C4E9015765283DD019DC58287AD00CDC42
:10087000452837D004DC252826D041289ED131E0F8
:1008800046282FD0472899D12CE05B2877D06128C3
:1008900028D063287CD0642823D15AE0F6E06F2862
:1008A00048D008DC66281DD067281BD0692821D0D5
:1008B0006E2816D127E0702845D0732868D0752897
:1008C00047D078280DD14DE0A1690D98884725289B
:1008D00005463FF469AFE1690D9888476D1C3FF408
:1008E0006AAFD8E00D9923466A466FF00100AFF376
:1008F0000080C5E045F0400023464FF000026060F4
:10090000A80736D43EE0E8077FF447AF2068011D12
:1009100021600068290501D506701BE7290701D56C
:10092000068017E7A90703D5F117C0E9006111E7B1
:1009300006600FE745F0400023464FF00802606074
:10094000A80716D41EE040F60E0125EA01006060FB
:1009500016E045F0400023464FF00A026060A80709
:1009600007D40FE045F040006060A80708D5234693
:1009700010220D996FF00100AFF3008080E007E0D6
:10098000102223460D996FF00100FFF711FD77E06B
:100990004FF0000963284F46C8464B46CB4602D06D
:1009A0005B2806D038E0E80601D40120A0600127CA
:1009B00032E06269D4F80CB00B98012190475E28B0
:1009C00007D14FF0010949466269D4F80CB00B9881
:1009D0009047216939B900210A4603AB43F8212029
:1009E000491C0829FADBD8B3216949B308F1010889
:1009F00062690B98012190475D28F4D1B9F1000F8D
:100A000009D0002003A951F82020D24341F820202A
:100A1000401C0828F7DB03AB2069002820794FEA47
:100A200040701ED05B462246CDF80080CDE901978C
:100A30000D9900286FF0010020DAAFF300801FE06D
:100A4000C11703AA00EBD1614B1121F01F0102EB8A
:100A50008302411A13680120884003431360C7E7EB
:100A600019E00D99224600286FF00100009702DA84
:100A7000AFF3008004E0AFF3008001E0AFF300804B
:100A800000280ADA401C06D10C9820B14FF0FF3044
:100A90000FB0BDE8F08F5046FAE7E90701D10AF13F
:100AA000010A064400200C9054E60000CCCCCC0C8B
:100AB00000487047380600207546FFF7F9FFAE463C
:100AC00005006946534620F00700854618B020B55A
:100AD000FFF7C6FBBDE820404FF000064FF00007CF
:100AE0004FF000084FF0000B21F00701AC46ACE8D6
:100AF000C009ACE8C009ACE8C009ACE8C0098D4643
:100B00007047000010B500F00FF8001D10BD00BFC9
:100B1000852B000010B50446AFF300802046BDE8E9
:100B20001040FFF789BB00000048704758060020BE
:100B300001491820ABBEFEE7260002004FF0013C41
:100B400050F8042B51F8043B9A4221D1A2EB0C033C
:100B5000934313EACC1317D150F8042B51F8043BFC
:100B60009A4215D1A2EB0C03934313EACC130BD199
:100B700050F8042B51F8043B9A4209D1A2EB0C0324
:100B8000934313EACC13DBD04FF00000704700BF53
:100B9000D01A01BAB1FA81F101F0180122FA01F07C
:100BA000CB40C1F12001DBB2C0B2C01A2CFA01F374
:100BB000D11A914311EAC311E6D17047704700BFC3
:100BC000FEE7000010B5024800F0F8F810BD000084
:100BD000D80500200146087810381823B0FBF3F23E
:100BE0000848805CC865032A05D908686FF30900C6
:100BF000001D886503E008686FF309008865886D4B
:100C000070470000CA360008014600208A6A8B69D6
:100C1000CBB932B1012A0DD0022A03D0032A10D158
:100C20000EE000BFCB6A03F08073B3F1807F00D188
:100C3000012007E0CB6AB3F1C07F00D1012001E0C1
:100C400000E000BF34E08B69B3F5005F1AD132B128
:100C5000012A07D0022A03D0032A11D10AE000BFDB
:100C600001200EE0CB6A03F08073B3F1807F00D1E6
:100C7000012006E0CB6AB3F1C07F00D1012000E083
:100C800000BF15E032B1012A05D0022A04D0032AA0
:100C90000CD103E000BF00BF012008E0CB6A03F0E5
:100CA0008073B3F1807F00D1012000E000BF00BF5E
:100CB000704730B50468246824F4802405682C60EB
:100CC000046863608468402C04D10468A2600468EE
:100CD000E16003E00468A1600468E26030BD704731
:100CE00072B600BFFEE770B50446A56D00F030FB9C
:100CF000064694F83500022808D08020606500BFC1
:100D0000002084F8340000BF012070BD2068006816
:100D100020F01600216808602068406920F08000FB
:100D200021684861206C08B9A06C28B1206800686F
:100D300020F00800216808602068006820F00100A9
:100D40002168086010E000F003FB801B05280BD928
:100D500020206065032084F8350000BF002084F85F
:100D6000340000BF0320D0E72068006800F00100D5
:100D70000028E8D194F85C103F208840A86001204A
:100D800084F8350000BF002084F8340000BF00BFA5
:100D9000BBE7014691F83500022803D08020486562
:100DA00001207047052081F835000868006820F0B0
:100DB00001000A6810600020F3E70000F8B504465F
:100DC000002000908C4800684FF41651B0FBF1F7FA
:100DD000A56D2E6894F85C1008208840304098B1CA
:100DE0002068006800F0040070B12068006820F0FE
:100DF00004002168086094F85C1008208840A8600E
:100E0000606D40F00100606594F85C10012088403E
:100E1000304068B12068406900F0800040B194F82B
:100E20005C1001208840A860606D40F002006065A1
:100E300094F85C1004208840304068B12068006855
:100E400000F0020040B194F85C1004208840A860D3
:100E5000606D40F00400606594F85C1010208840DC
:100E6000304078B32068006800F0080050B394F870
:100E70005C1010208840A8602068006800F4802082
:100E800080B12068006800F4002028B9206CC8B147
:100E90002046216C884715E0A06C98B12046A16CD3
:100EA00088470FE02068006800F4807028B9206847
:100EB000006820F0080021680860206C10B120460E
:100EC000216C884794F85C1020208840304000282E
:100ED00065D02068006800F0100000285FD094F80A
:100EE0005C1020208840A86094F83500052828D19F
:100EF0002068006820F016002168086020684069BA
:100F000020F0800021684861206C08B9A06C28B1ED
:100F10002068006820F008002168086094F85C10E0
:100F20003F208840A860012084F8350000BF0020E1
:100F300084F8340000BF206D10B12046216D884731
:100F4000F8BD2068006800F4802080B12068006847
:100F500000F4002028B9606C10B12046616C88470D
:100F60001DE0E06BD8B12046E16B884717E02068B0
:100F7000006800F4807068B92068006820F01000F4
:100F800021680860012084F8350000BF002084F843
:100F9000340000BFE06B10B12046E16B8847606D04
:100FA00038B3606D00F00100F0B1052084F8350021
:100FB0002068006820F001002168086000BF0098E8
:100FC000401C0090B84200D905E02068006800F09D
:100FD00001000028F3D100BF012084F8350000BFD4
:100FE000002084F8340000BFE06C10B12046E16CB2
:100FF000884700BFA4E70000100000202DE9F04161
:101000000446002500F0A4F9074614B90120BDE804
:10101000F081606A00B100BF022084F8350000BF93
:10102000002084F8340000BF2068006820F0010030
:10103000216808600AE000F08BF9C01B052805D97B
:1010400020206065032084F83500E0E72068006810
:1010500000F001000028EED1206805682148054015
:10106000D4E901010843E168084321690843616943
:101070000843A1690843E1690843216A084305431D
:10108000606A042803D1D4E90B01084305432068B2
:1010900005602068456925F00705606A0543606AB8
:1010A00004280DD1A06A0543E06A48B12046FFF745
:1010B000ABFD28B140206065012084F83500A6E72B
:1010C000206845612046FFF785FD064694F85C10D0
:1010D0003F208840B06000206065012084F8350022
:1010E000002094E73F8010F02DE9F04704460D46BC
:1010F00016461F464FF00008D4F8589000BF94F8E9
:101100003400012802D10220BDE8F087012084F8D4
:10111000340000BF94F83500012825D1022084F85E
:101120003500002060653B46324629462046FFF7E1
:10113000C0FD94F85C103F208840C9F80800206882
:10114000006840F0160021680860206C28B1206813
:10115000006840F00800216808602068006840F0DE
:1011600001002168086006E000BF002084F8340018
:1011700000BF4FF002084046C6E70000F8B502463F
:101180000B460025002400200021C7E0012606FAB6
:1011900001F51E6806EA0504AC4274D11E7906F01A
:1011A0000306012E04D01E7906F00306022E13D189
:1011B00090684F000326BE40B0434F00DE68BE403B
:1011C00030439060506801268E40B0431E79C6F3CC
:1011D00000168E40304350601E7906F00306032E41
:1011E00009D0D0684F000326BE40B0434F009E6830
:1011F000BE403043D0601E7906F00306022E13D1A4
:10120000CF0802F1200656F827004E07F70E0F26EA
:10121000BE40B0434F07FF0E1E69BE403043CF08AB
:1012200002F1200646F8270010684F000326BE4052
:10123000B0431E7906F003064F00BE4030431060F5
:101240005E6806F44036002E67D000BF0026009688
:10125000344E366846F48046324F3E603E4636682D
:1012600006F48046009600BF00BF2F4E8F0856F848
:1012700027008E07370F0F26BE40B0432B4EB242D9
:1012800002D1002615E048E0294EB24201D10126E4
:101290000FE0284EB24201D102260AE0264EB242A9
:1012A00001D1032605E0254EB24201D1042600E01B
:1012B00007268F073F0FBE4030431B4E8F0846F86E
:1012C00027001F4E3068A0435E6806F4801606B102
:1012D00020431B4E3060361D3068A0435E6806F424
:1012E000001606B12043164E361D3060144E361FD0
:1012F0003068A0435E6806F4003606B12043104E05
:10130000361F3060361F3068A0435E6806F48036B2
:1013100006B120430A4E083E3060491C1029FFF4F4
:1013200035AFF8BD443802400838014000000240A3
:101330000004024000080240000C0240001002407D
:10134000083C01400AB1816101E00B0483617047F0
:10135000014800687047000004000020034800684E
:1013600003490978084401490860704704000020D7
:101370000C00002010B50D48006840F400700B49C7
:1013800008600846006840F480600860084600680D
:1013900040F480700860032000F0A6F80F2000F0F1
:1013A00007F800F02BF8002010BD0000003C0240C0
:1013B00070B504460E4800784FF47A71B1FBF0F036
:1013C0000C490968B1FBF0F5284600F0D7FC08B1DC
:1013D000012070BD102C07D200222146501E00F0C3
:1013E00045F80548046001E00120F2E70020F0E73D
:1013F0000C000020100000200800002008B500BFED
:10140000002000900E48006840F480400C490860BD
:101410000846006800F48040009000BF00BF00BF95
:1014200000200090081F006840F08050091F0860ED
:101430000846006800F08050009000BF00BF08BD63
:10144000443802400146084600280DDB00BF00BFBB
:1014500000F01F0301229A4043099B0003F1E0239F
:10146000C3F8002100BF00BF00BF70472DE9F05F47
:1014700080460D461646002701F032FC07463946E5
:101480002A46334601F00700C0F1070ABAF1040FFB
:1014900002D94FF0040A01E0C0F1070AD14600F179
:1014A000040ABAF1070F02D24FF0000A01E0A0F1DE
:1014B000030AD4464FF0010A0AFA09FAAAF1010A0E
:1014C0000AEA020A0AFA0CFA4FF0010B0BFA0CFBBB
:1014D000ABF1010B0BEA030B4AEA0B042146404631
:1014E00001F006FCBDE8F09F00BF00F00702064BCC
:1014F00019684FF6FF031940044B0B4343EA0221DE
:10150000014B196000BF70470CED00E00000FA05C8
:1015100070B504460D460CB9012070BD58480068EE
:1015200000F00700A84209D255490D70084600682E
:1015300000F00700A84201D00120EEE7207800F07B
:10154000020002281DD1207800F00400042805D1F3
:101550004C48006840F4E0504A490860207800F0A8
:101560000800082805D14748006840F46040454914
:1015700008604448006820F0F000A1680843414931
:101580000860207800F00100A8B36068012807D146
:101590003C4808380068C0F34040B8B90120BCE7B7
:1015A0006068022802D06068032807D135480838EF
:1015B0000068C0F3406048B90120AEE73148083800
:1015C0000068C0F3400008B90120A6E72D48006874
:1015D00020F00300616808432A490860FFF7B8FE5D
:1015E000064609E0FFF7B4FE801B41F288318842CD
:1015F00002D9032091E707E02248006800F00C00C0
:101600006168B0EB810FEDD11D48006800F0070064
:10161000A84209D91A490D700846006800F0070071
:10162000A84201D0012078E7207800F004000428C7
:1016300007D11448006820F4E050E16808431149DC
:101640000860207800F00800082808D10D480068DC
:1016500020F46040216940EAC1000A49086000F0B6
:101660003FF808490968C1F30311074A515CC840B3
:101670000649086006480068FFF79AFE00204CE71C
:10168000003C024008380240D2360008100000201A
:10169000080000200148006870470000100000208A
:1016A00000B5FFF7F7FF04490968C1F38221034A37
:1016B000515CC84000BD000008380240E236000816
:1016C00000B5FFF7E7FF04490968C1F34231034A57
:1016D000515CC84000BD000008380240E2360008F6
:1016E0002DE9F047002400250026A1462548006882
:1016F00000F00C0020B1042805D008283AD105E0FC
:10170000DFF8849039E0DFF8849036E01D48001F50
:10171000006800F03F041B48001F006800F48000D0
:1017200078B11A481749091F0968C1F38811A0FB4D
:1017300001700146224600233846FEF7A3FD054608
:101740000EE011480F49091F0968C1F38811A0FB79
:1017500001700146224600233846FEF793FD0546F8
:101760000848001F0068C0F30140401C4600B5FB5C
:10177000F6F902E0DFF8109000BF00BF4846BDE870
:10178000F0870000083802400024F40040787D0112
:10179000F8B504460CB90120F8BD207800F001002E
:1017A000002874D0F948006800F00C0004280DD01F
:1017B000F648006800F00C00082813D1F348001F19
:1017C000006800F48000B0F5800F0BD1EF480838B6
:1017D0000068C0F34040002859D06068002856D106
:1017E0000120D9E700BF6068B0F5803F08D1E74825
:1017F0000838006840F48030E449083908601EE089
:101800006068B0F5A02F0DD1E0480838006840F4BA
:101810008020DE49083908600846006840F48030BE
:1018200008600CE0D9480838006820F48030D749B7
:10183000083908600846006820F48020086000BF6E
:10184000606890B1FFF784FD054606E0FFF780FD74
:10185000401B642801D903209EE7CC480838006863
:10186000C0F340400028F1D011E0FFF771FD0546BC
:1018700006E0FFF76DFD401B642801D903208BE7CC
:10188000C24808380068C0F340400028F1D12078F1
:1018900000F0020002285FD1BC48006800F00C0094
:1018A00058B1BA48006800F00C0008281CD1B748AD
:1018B000001F006800F48000B0B9B4480838006820
:1018C000C0F3400020B1E068012801D0012063E7A7
:1018D000AE480838006820F0F800216940EAC100ED
:1018E000AA490839086037E0E06800B30120A84938
:1018F0000860FFF72DFD054606E0FFF729FD401BB8
:10190000022801D9032047E7A04808380068C0F33F
:1019100040000028F1D09D480838006820F0F80009
:10192000216940EAC10099490839086014E00020A3
:1019300097490860FFF70CFD054606E0FFF708FD34
:10194000401B022801D9032026E790480838006888
:10195000C0F340000028F1D1207800F008000828EA
:101960002CD16069A8B101208A490860FFF7F0FC1A
:10197000054606E0FFF7ECFC401B022801D90320D6
:101980000AE782486C300068C0F340000028F1D0BC
:1019900014E000207F490860FFF7DAFC054606E006
:1019A000FFF7D6FC401B022801D90320F4E6774854
:1019B0006C300068C0F340000028F1D1207800F0BE
:1019C0000400042870D1002770483830006800F007
:1019D000805090B900BF002000906C4838300068FB
:1019E00040F080506949383108600846006800F0CE
:1019F0008050009000BF00BF01276748006800F4D6
:101A00008070B0B96448006840F480706249086032
:101A1000FFF79EFC054606E0FFF79AFC401B0228F4
:101A200001D90320B8E65C48006800F48070002803
:101A3000F2D000BFA068012808D15448683000687F
:101A400040F001005149683108601DE0A068052898
:101A50000DD14E486830006840F004004B496831B1
:101A600008600846006840F0010008600CE0474844
:101A70006830006820F00100444968310860084679
:101A8000006820F00400086000BFA068A8B1FFF75C
:101A90005FFC054609E0FFF75BFC401B41F2883123
:101AA000884202D9032077E626E03848683000688B
:101AB000C0F340000028EED013E0FFF749FC0546D4
:101AC00008E0FFF745FC401B41F28831884201D90C
:101AD000032061E62D4868300068C0F3400000280C
:101AE000EFD1012F07D129483830006820F080500D
:101AF00026493831086000BFA069002845D0234836
:101B0000006800F00C0008285DD0A069022845D1CB
:101B100000201F490866FFF71BFC054606E0FFF79B
:101B200017FC401B022801D9032035E61748083866
:101B30000068C0F340600028F1D1D4E907010843F0
:101B4000616A40EA81110122A06AC2EB500041EAB9
:101B500000412C20005D41EA00600C49091F08602B
:101B600001200B490866FFF7F3FB054606E0FFF787
:101B7000EFFB401B022801D903200DE6034808387B
:101B80000068C0F340600028F1D049E00838024006
:101B900000004742800E474200700040002021496B
:101BA0000866FFF7D5FB054606E0FFF7D1FB401BB3
:101BB000022801D90320EFE51B480068C0F340600C
:101BC0000028F2D12CE0A069012800D1E4E51648F4
:101BD000001D0668A069012820D006F48001E06994
:101BE00081421BD106F03F01206A814216D147F69F
:101BF000C0703040616AB0EB811F0FD106F44031F4
:101C00000122A06AC2EB5000B1EB004F06D106F0F2
:101C100070612C20005DB1EB006F01D00120BBE5AD
:101C20000020B9E5000047420038024010B50446E4
:101C30000CB9012010BD606A38B96068B0F5827FC8
:101C400000D105E00021E16102E000212161616134
:101C50000021A16294F8510028B9002084F85000B6
:101C6000204600F047F8022084F851002068006800
:101C700020F0400021680860A08800F4827021896B
:101C800001F404410843A18901F400610843217C67
:101C900001F002010843217D01F001010843218B7D
:101CA00001F400710843217F01F03801084320212D
:101CB000095D01F080010843218D01F400510843C2
:101CC000216808600421A06901EA104094F82410FA
:101CD00001F010010843216848602068C06920F4C1
:101CE00000602168C86100206065012084F851000F
:101CF00000209FE710B586B00446142101A8FEF726
:101D000064FC1B49206888422FD100BF002000904E
:101D10001848006840F4805016490860084600687A
:101D200000F48050009000BF00BF00BF0020009072
:101D300010481438006840F001000E49143908605A
:101D40000846006800F00100009000BF00BFA0201E
:101D500001900220029000200390032004900520AF
:101D6000059001A90448FFF709FA06B010BD00006C
:101D700000300140443802400000024070B5044683
:101D80002546681EB0F1807F01D301200FE0681E58
:101D90004FF0E02148610F214FF0FF3000F0A8FF25
:101DA00000204FF0E021886107200861002070BD0D
:101DB000F8B504460D46164694F8420020282DD169
:101DC00005B10EB90120F8BD012020630020606339
:101DD00032462946204600F0C9FE0746206B0128FE
:101DE00019D100BF00200090206800680090206892
:101DF0004068009000BF00BF00BF00BF21680C31E9
:101E000051E8001F41F0100021680C3141E8000248
:101E1000002AF3D100E001273846D4E70220D2E7B8
:101E200070B586B005460E463D49286888426FD198
:101E30003C480078552802D101203B4908703948B8
:101E40000078432828D137484078A0F1300403A80F
:101E500004AB05AA35A100903248801CFEF78AFA2F
:101E60000120C4EBC401344A02F81100BDF914008A
:101E7000C4EBC40102EB41014880BDF91010C4EB72
:101E8000C40002EB40008180BDF80C00C4EBC4012B
:101E900002EB4101C88000BF22480078522831D1AE
:101EA00020484078A0F1300402A803A904AB05AA99
:101EB000CDE9001021A11B48801CFEF75BFA02202F
:101EC000C4EBC4011C4A02F81100BDF91400C4EBB4
:101ED000C40102EB41014880BDF91010C4EBC400FD
:101EE00002EB40008180BDF80C00C4EBC40102EBA2
:101EF0004101C880BDF80810C4EBC40002EB4000EB
:101F0000018100BF4FF4806206492846FFF750FF69
:101F10004FF480610348FEF736FB06B070BD000049
:101F20000010014020000020000000202568642CE3
:101F30002568642C25687500AC0400202568642C95
:101F40002568642C2568752C25687500704700008D
:101F50002DE9F84F0446206805682068C6682068A7
:101F600047694FF00009CA4605F00F09B9F1000FA3
:101F70000AD105F0200038B106F0200020B120463B
:101F800000F060FCBDE8F88FB9F1000F7CD007F0DD
:101F9000010018B906F49070002875D005F0010012
:101FA00030B106F4807018B1606C40F001006064DC
:101FB00005F0040030B107F0010018B1606C40F08A
:101FC0000200606405F0020030B107F0010018B1B2
:101FD000606C40F00400606405F0080048B106F051
:101FE000200010B907F0010018B1606C40F0080043
:101FF0006064606C002846D005F0200028B106F02F
:10200000200010B1204600F01DFC20684069C0F39C
:10201000801A606C00F0080010B9BAF1000F2DD0E2
:10202000204600F0B6FB2068406900F040004028E0
:1020300020D100BF00BF2168143151E8001F21F0FA
:1020400040002168143141E80002002AF3D100BFAA
:10205000E06B50B17F48E16B0865E06BFEF799FEDD
:1020600088B1E06B016D88470DE02046FFF76EFFF9
:1020700009E009E02046FFF769FF04E02046FFF78A
:1020800065FF002060647DE7206B012878D105F0B2
:102090001000002874D006F010000028FAD000BF0D
:1020A0000020009020680068009020684068009040
:1020B00000BF00BF2068406900F04000402870D198
:1020C000E06B006840681FFA80F8B8F1000F58D044
:1020D000A08D404555DDA4F82E80E06BC069B0F5B9
:1020E000807F43D000BF00BF21680C3151E8001F42
:1020F00021F4807021680C3141E80002002AF3D1FC
:1021000000BF00BF00BF2168143151E8001F21F05B
:1021100001002168143141E80002002AF3D100BF18
:1021200000BF00BF2168143151E8001F21F04000BA
:102130002168143141E80002002AF3D100BF2020B9
:1021400084F842000020206300BF00BF21680C31EA
:1021500051E8001F21F0100021680C3141E8000215
:10216000002AF3D100BFE06BFEF7BDFD02206063E3
:10217000A08DE28D801A81B22046FFF751FE0EE05D
:1021800052E0A08D40450AD1E06BC069B0F5807F78
:1021900005D102206063A18D2046FFF741FEF1E6E4
:1021A000FFE7A08DE18D401A1FFA80F8E08DD0B3D3
:1021B000B8F1000F37D000BF00BF21680C3151E8E3
:1021C000001F21F4907021680C3141E80002002AC0
:1021D000F3D100BF00BF00BF2168143151E8001FD8
:1021E00021F001002168143141E80002002AF3D1F6
:1021F00000BF202084F842000020206300BF00BF01
:1022000021680C3151E8001F21F0100021680C31C9
:1022100041E80002002AF3D100BF0220606341467A
:102220002046FFF7FDFDADE605F0800030B106F079
:10223000800018B1204600F005FDA3E605F040003F
:1022400030B106F0400018B1204600F0D8FA99E607
:1022500000BF97E65926000810B504460CB90120C6
:1022600010BDA06900B100E000BF94F8410028B99A
:10227000002084F84000204600F02AF8242084F84A
:1022800041002068C06820F400502168C8602046E2
:1022900000F056FB2068006920F490402168086136
:1022A0002068406920F02A00216848612068C068E1
:1022B00040F400502168C86000206064202084F849
:1022C000410084F842000020606300BFC8E70000BE
:1022D00010B586B00446142101A8FEF776F92E4900
:1022E0002068884255D100BF002000902B4800682C
:1022F00040F01000294908600846006800F010000E
:10230000009000BF00BF00BF002000902348143899
:10231000006840F00100214914390860084600684F
:1023200000F00100009000BF00BF4FF4C0600190BA
:1023300002200290002003900320049007200590C3
:1023400001A91748FEF71AFF1648174908604FF011
:1023500000604860002114488160C1604FF48061D2
:102360000161002141618161C16101624162FEF749
:1023700045FE08B1FEF7B4FC00BF0B48E063846380
:1023800000BF002211462520FFF770F82520FFF737
:1023900059F806B010BD000000100140443802405A
:1023A0000000024040640240D8050020704770479A
:1023B000704700BFFEE7000008B500BF0020009096
:1023C0000A48006840F48000084908600846006830
:1023D00000F48000009000BF00BF002211463A20A8
:1023E000FFF744F83A20FFF72DF808BD30380240D7
:1023F00000B587B0142102A8FEF7E7F800BF00205F
:1024000001903B48006840F00400394908600846E4
:10241000006800F00400019000BF00BF00BF002072
:1024200001900846006840F0800008600846006897
:1024300000F08000019000BF00BF00BF00200190AD
:102440000846006840F0010008600846006800F097
:102450000100019000BF00BF00BF002001900846AE
:10246000006840F0020008600846006800F00200C2
:10247000019000BF00BF012251031E48FEF762FF1A
:10248000002251211C48FEF75DFF012208211A4855
:10249000FEF758FF00224FF480611848FEF752FF04
:1024A0004FF400500290012003900020049005900A
:1024B00002A91048FEF762FE592002900120039005
:1024C000002004900320059002A90B48FEF756FE59
:1024D0004FF48060029001200390002004900320BC
:1024E000059002A90548FEF749FE07B000BD0000AF
:1024F0003038024000080240000002400004024060
:1025000010B50E480E4908604FF4827048600021F3
:102510000B488160C160016141614FF400718161CC
:102520000821C16100210162416281620A21C16208
:10253000FFF77CFB08B1FEF7D3FB10BD0030014074
:102540003805002010B50A480A4908600A48486062
:10255000002108488160C16001610C2141610021B6
:102560008161C161FFF778FE08B1FEF7B9FB10BDCC
:1025700000100140900500200094110000BFFEE70C
:1025800000BFFEE77047704710B5FEF7E7FE10BDCD
:1025900000B593B0302107A8FEF717F8142102A860
:1025A000FEF713F800BF002001902448006840F0B7
:1025B0008050224908600846006800F08050019071
:1025C00000BF00BF00BF002001901D48006820F43C
:1025D000404040F400401A4908600846006800F492
:1025E0004040019000BF00BF012007900004089008
:1025F00002200D9041050E9119210F91A8211091F3
:10260000022111910421129107A8FFF7C1F808B126
:10261000FEF766FB0F20029002200390002004903A
:102620004FF48050059000200690022102A8FEF78A
:102630006FFF08B1FEF754FB13B000BD40380240F5
:10264000007000400348006840F4700001490860D1
:102650007047000088ED00E070B50446A56B0020CF
:10266000E8852846FFF772FC70BD70B50646002568
:10267000B46B20684069C0F3C01594F8410021286C
:1026800005D125B10020E084204600F0C8F820687C
:102690004069C0F3801594F84200222805D125B185
:1026A0000020E085204600F074F8606C40F01000D7
:1026B00060642046FFF74AFC70BD70B50546AC6B00
:1026C0002868006800F48070002842D1E08500BFCF
:1026D00000BF21680C3151E8001F21F4807021688F
:1026E0000C3141E80002002AF3D100BF00BF00BF57
:1026F0002168143151E8001F21F0010021681431D4
:1027000041E80002002AF3D100BF00BF00BF2168EA
:10271000143151E8001F21F040002168143141E8D4
:102720000002002AF3D100BF202084F84200206B71
:1027300001280ED100BF00BF21680C3151E8001FF5
:1027400021F0100021680C3141E80002002AF3D189
:1027500000BF00206063206B012804D1A18D2046BA
:10276000FFF75EFB02E02046FFF720FE70BD70B56C
:102770000546AC6B01206063206B012805D1A08D5C
:1027800041082046FFF74CFB02E02046FFF70FFE12
:1027900070BD00BF00BF02680C3252E8002F22F467
:1027A000907102680C3242E80013002BF3D100BF95
:1027B00000BF00BF0268143252E8002F22F001016E
:1027C0000268143242E80013002BF3D100BF016B02
:1027D00001290ED100BF00BF02680C3252E8002F61
:1027E00022F0100102680C3242E80013002BF3D1F2
:1027F00000BF202180F8421000210163704710B50E
:1028000004462068C06820F040002168C86020208D
:1028100084F841002046FFF7CBFD002010BD00BF2B
:1028200000BF02680C3252E8002F22F0C00102689B
:102830000C3242E80013002BF3D100BF202180F8B6
:1028400041107047F8B504460025002694F8420070
:10285000222873D1A068B0F5805F0BD1206948B9F8
:10286000A66A20684068C0F308003080A06A801C17
:10287000A06214E0A56AA068B0F5805F03D0A068EC
:1028800028B9206918B920684068287004E02068D9
:10289000406800F07F002870A06A401CA062E08DB4
:1028A000401E80B2E085002846D12068C06820F034
:1028B00020002168C8602068C06820F4807021680A
:1028C000C8602068406920F001002168486120202C
:1028D00084F8420000206063206B012826D100208C
:1028E000206300BF00BF21680C3151E8001F21F0B8
:1028F000100021680C3141E80002002AF3D100BF2A
:102900002068006800F0100010280AD100BF0020E5
:10291000009020680068009020684068009000BF28
:1029200000BFA18D2046FFF77BFA02E02046FFF7AB
:102930003DFD0020F8BD01E00020FBE70220F9E7A3
:102940002DE9F84F04462068006920F44050E16802
:102950000843216808612169A06808436169084348
:10296000E169084300902068C06849F20C6188431F
:10297000009908432168C8602068406920F44070CD
:10298000A16908432168486176492068884203D0DC
:1029900075492068884203D1FEF792FE814602E025
:1029A000FEF77EFE8146E069B0F5004F6CD1022053
:1029B0006168A0FB015003461920A9FB0070014685
:1029C0002A463846FDF75EFC6421B0FBF1F04FEA81
:1029D000001A02206168A0FB01510B461920A9FBD7
:1029E00000712A463846FDF74DFC83460220616897
:1029F000A0FB015003461920A9FB00712A46384666
:102A0000FDF740FC6421B0FBF1F000EBC00101EBED
:102A10000010ABEB8000322101EBC0006421B0FB61
:102A2000F1F000F0F8000AEB400A02206168A0FB18
:102A3000015003461920A9FB007001462A4638467A
:102A4000FDF720FC834602206168A0FB015003468D
:102A50001920A9FB00712A463846FDF713FC6421B2
:102A6000B0FBF1F000EBC00101EB0010ABEB80001C
:102A7000322101EBC0006421B0FBF1F000F007004F
:102A80005044216888606AE004206168A0FB01501E
:102A900003461920A9FB007001462A463846FDF777
:102AA000F1FB824604206168A0FB01500346192017
:102AB000A9FB007001462A463846FDF7E3FB642176
:102AC000B0FBF1F000EBC00101EB0010AAEB8000BD
:102AD000322101EB00106421B0FBF1F000F0F00AAC
:102AE00004206168A0FB017003461920A9FB005176
:102AF0003A462846FDF7C6FB6421B0FBF1F00AEB2D
:102B0000001A04206168A0FB01510B461920A9FBA3
:102B100000712A463846FDF7B5FB834604206168FC
:102B2000A0FB015003461920A9FB007001462A466C
:102B30003846FDF7A7FB6421B0FBF1F000EBC001C4
:102B400001EB0010ABEB8000322101EB001064219F
:102B5000B0FBF1F000F00F00504421688860BDE840
:102B6000F88F0000001001400014014077B581B0DB
:102B7000044615460298A062A585002060642220C4
:102B800084F842002C48E16BC8632C48E16B086470
:102B90002B48E16BC8640020E16B086502AE326827
:102BA0002368191D2B46E06BFEF79EFA38B1102002
:102BB0006064202084F84200012004B070BD00BF92
:102BC0000020009020680068009020684068009015
:102BD00000BF00BF206970B100BF00BF21680C3189
:102BE00051E8001F41F4807021680C3141E8000277
:102BF000002AF3D100BF00BF00BF2168143151E8A3
:102C0000001F41F001002168143141E80002002A50
:102C1000F3D100BF00BF00BF2168143151E8001F8D
:102C200041F040002168143141E80002002AF3D14C
:102C300000BF0020C1E70000BB2600086F27000886
:102C40006B260008014691F84100212828D18868A8
:102C5000B0F5805F0BD1086948B90A6A1088C0F3E3
:102C600008000B685860086A801C086205E00B6A5F
:102C7000581C086218780B685860C88C401E80B2D7
:102C8000C88458B90868C06820F080000B68D86014
:102C90000868C06840F040000B68D86000207047AA
:102CA0000220FCE710B50248FFF752F910BD000002
:102CB0009005002000BFFEE74100080218BF042075
:102CC0000A0E18BF40F001004FF07F4232EA0101C6
:102CD00008BF40F00200012808BF0520704700002F
:102CE00002480068C0F30220704700000CED00E0CD
:102CF00010B5002804DB0A07130E054A135406E03A
:102D00000A07140E034A00F00F031B1FD45410BD12
:102D100000E400E018ED00E010EE101A08B5444A97
:102D20006846B2EB410F28D94FF0E640B0EB410FB7
:102D300094BF00204FF0FF3000900098002861DB26
:102D400060EE000A10F0010F45D010F0020FDFED29
:102D5000391A9FED391A00EEE11ADFED381A40EE0C
:102D6000811A21EEA01AF0EE400A40EE010A08BFD7
:102D7000F1EE600AB0EE600A08BD314B21F000426E
:102D800093423CD911F0004FDFED2E0A20EE201ABD
:102D9000DFED2D0A19BF31EE601A71EE200A31EE17
:102DA000201A71EE600ABDEEE01A11EE100A9FEDD6
:102DB000271A00F0030000EEC10A9FED251A0090CB
:102DC00000EEC10A9FED231A00EEC10A9FED221A00
:102DD00000EEC10AB1E79FED211A9FED210A10F024
:102DE000020F00EE810A9FED1F1A00EE801AB7EE67
:102DF000000A00EE810A18BFB1EE400A08BD00F0DB
:102E00000FF99AE710EE100A4000B0F17F4F3CBF77
:102E1000B7EE000A08BD07D14FF00100FDF704FC32
:102E2000BDE8084000F0ECB8BDE8084000F0E4B8A8
:102E3000B61F927E336D4C39DA82083CA0AA2ABEB6
:102E4000490E494683F9223F0000004B0000C93F6C
:102E500000A0FD390020A2331A61342CB93AB2BA6D
:102E6000CA9F2A3DDDFFFFBE00B510EE101A2DED02
:102E7000028B81B0524A6846B2EB410F2ED94FF017
:102E8000E640B0EB410F94BF00204FF0FF300090C0
:102E90000098B0EE408A00286ADB10F0010F4BD09A
:102EA00068EE080A9FED471A9FED470A00EE810A77
:102EB0009FED461A10F0020F00EE801AB7EE000ADE
:102EC00000EE810A02BF01B0BDEC028B00BD00BF65
:102ED00001B0B1EE400ABDEC028B00BD3C4B21F0CD
:102EE0000042934241D911F0004FDFED3A0A20EE43
:102EF000201ADFED390A19BF31EE601A71EE200A8F
:102F000031EE201A71EE600ABDEEE01A11EE100AE1
:102F10009FED321A00F0030000EEC10A9FED301A57
:102F2000009000EEC10A9FED2F1A00EEC10A9FED3E
:102F30002E1A00EEC10AABE728EE080A9FED2B1A05
:102F4000DFED2B0A10F0020F40EE410A9FED291A27
:102F500000EE201A61EE000AB0EE480A08EE200AE0
:102F6000B6D101B0BDEC028B00BD00F059F88FE77F
:102F700018EE100A4000B0F17F4F0DD218EE100A83
:102F8000FFF79AFE042808BF00F042F8B0EE480AA6
:102F900001B0BDEC028B00BD09D10120FDF744FB5F
:102FA00001B0BDEC028B5DF804EB00F029B801B074
:102FB000B0EE480ABDEC028B5DF804EB00F01CB8E3
:102FC000B61F927EB93AB2BACA9F2A3DDDFFFFBE54
:102FD000490E494683F9223F0000004B0000C93FDB
:102FE00000A0FD390020A2331A61342C336D4C3916
:102FF000DA82083CA0AA2ABE30EE000A7047000020
:10300000DFED020A80EEA00A704700000000000019
:103010009FED020A20EE000A704700000000001039
:103020002DE9F0014FF07F42B2EB410F9FBF4FF00F
:10303000FF310160BDE8F00170474FF0004242EA05
:103040000123C1F3C752783A551112F01F0C434CBB
:10305000CCF120067C44C1F3C752A2F178024FEABA
:10306000621204EB820254F8254008BFD2E90156EF
:1030700012D0556804FA0CF425FA06F73C43976819
:1030800005FA0CF527FA06F8D26807FA0CFCF240AC
:1030900045EA08054CEA0206A4FB034CA5FB0352D3
:1030A000A6FB03631D449D4234BF0126002613196D
:1030B000334416B1934202D903E0934201D2012274
:1030C00000E00022624402F1200C9206DC0C42EA8D
:1030D000443200EE102A5B03DFED210AF8EEC01A3D
:1030E00000EE103A4FEA9C1C11F0004FB8EE400A77
:1030F000C0F800C020EE201A00EE105ADFED190AC9
:10310000B8EE400A20EE200A71EE810A70EE800AC5
:1031100010EE902A02F500626FF30B0200EE902A87
:1031200070EEE11A31EEC11ADFED101A30EE411ADD
:103130009FED0D0A20EE800A01EE210A9FED0C1A88
:1031400000EE810A04BFBDE8F0017047CCF1805168
:103150000160BDE8F001B1EE400A7047940600003E
:10316000000000360000802C22AAFD29DB0FC92FA9
:103170000000C92F00B512480068006840F0400008
:103180000F49096808600F48806940F480000D49C4
:1031900088610846806940F0080088610121282084
:1031A00000F03AF80321202000F036F80121382001
:1031B00000F032F80021022000F02EF800BD0000DF
:1031C000380500200000024030B504460D46214677
:1031D000182000F021F82946192000F01DF80748B2
:1031E000806940F400200549886100BF0348806978
:1031F00040F008000149886130BD00000000024035
:1032000030B504460D4605F5004291B204F5004282
:1032100090B2FFF7D9FF30BD174A926942F480128D
:10322000154B9A61154A1268D06000BF134A1268A4
:103230009268C2F3C012002AF8D10A0A0F4B1B6829
:10324000DA6000BF0D4A12689268C2F3C012002A09
:10325000F8D1CAB2094B1B68DA6000BF074A12688E
:103260009268C2F3C012002AF8D1034A926942F070
:103270001002014B9A61704700000240380500209F
:103280002DE9F0472DED028B06460F46144600252A
:1032900041E000EE105AB8EEC00ADFED220A20EE3F
:1032A000200ADFED210A80EE201AB0EE418AB0EE4E
:1032B000480AFFF731FDF0EE400A00EE106AB8EE62
:1032C000C01A00EE104AB8EE400A00EE201ABDEE19
:1032D000C10A10EE100A0FFA80F8B0EE480AFFF7A4
:1032E000C3FDF0EE400A00EE107AB8EEC01A00EE10
:1032F000104AB8EE400A00EE201ABDEEC10A10EEE8
:10330000100A0FFA80F949464046FFF779FF14206A
:1033100000F06AF96D1C5A2DBBDBBDEC028BBDE8D9
:10332000F0870000DB0FC9400000B4422DE9F047F0
:103330000746884615461E46002400BF12E0B146E7
:1033400006EBD97208EB620211B2AA4605EBDA72FB
:103350003B1B03EB620210B2FFF752FF782000F034
:1033600043F96434AC42EADB002413E0B14606EBD7
:10337000D972A8EB040303EB620211B2AA4605EB73
:10338000DA72A7EB620210B2FFF73AFF782000F082
:103390002BF96434B442E9DB002412E0B14606EBB9
:1033A000D972A8EB620211B2AA4605EBDA723B1998
:1033B000A3EB620210B2FFF723FF782000F014F9AC
:1033C0006434AC42EADB002413E0B14606EBD97268
:1033D00008EB0403A3EB620211B2AA4605EBDA7212
:1033E00007EB620210B2FFF70BFF782000F0FCF849
:1033F0006434B442E9DBBDE8F08708B50146D1F892
:10340000020000900878012802D002281DD107E0B0
:10341000BDF80000CA88104400B2ADF8000015E005
:10342000C88800EBD072BDF8003003EB620212B224
:10343000ADF80020088900EBD072BDF8023003EB34
:10344000620212B2ADF8022000E000BF00BF009897
:1034500008BD000008B5FDF78DFFFFF799F8FEF7EE
:10346000C7FFFEF7A9FFFFF76DF8FFF749F8FFF771
:1034700081FE012291024648FDF764FF4FF480620D
:1034800044494548FEF794FC01204449087041F244
:10349000883048800146414881804FF47A703F4926
:1034A000C8800120887300213C48018241F28831A4
:1034B00041824FF47A7181820120384908774EF6B3
:1034C00078413648C18341F2883101844FF47A71E2
:1034D00041840220314981F82A0000212F4881854A
:1034E000C1854FF4FA610186491041864EE02B4CAC
:1034F00039E02046FFF781FF00902078012802D0B4
:1035000002282DD11BE02648806940F001002449A3
:103510008861BDF90210BDF9000040F2DC5200F0F4
:1035200045F8E288B4F90410B4F90200FFF7A8FEE8
:103530001B48806940F480301949886111E0BDF969
:103540000210BDF9000040F2DC5200F02FF8238990
:10355000E288B4F90410B4F90200FFF7E7FE00E0D6
:1035600000BF00BF0E3420780028C2D10D4800787B
:1035700058B18C220C490948FCF7C0FF8C210A483D
:10358000FDF701F800200749087000BFAFE7000011
:1035900000040240200000209005002020040020AC
:1035A0000000024000000020AC04002070B5054679
:1035B0000E4614464FF4C87000F016F800224FF47F
:1035C00080610848FDF7BEFE31462846FFF718FE29
:1035D000204600F009F8012291020248FDF7B2FEF0
:1035E00070BD00000004024001B5002046E00099D3
:1035F000B1F5617F02D94FF4617100E0009908468E
:103600004FF0E02189691F4A116011460968542270
:1036100002FB10111C4A116011460968002912DBD7
:1036200000BF4FF0E0218969184A1160114609680E
:10363000144A126891421EDC14490968124A126841
:103640009142EEDA17E010490968114A11440E4A16
:10365000116000BF4FF0E02189690C4A11601146EA
:103660000968084A12689142F4DD08490968064A67
:1036700012689142EEDA0099091A00910099002926
:10368000B5D108BD14000020180000201C00002047
:103690002048010010B500290AD00878002807D07A
:1036A00005487844FDF74AFA002801D0002010BDF3
:1036B0000248784410BD00008A000000820000002B
:1036C0004FF04070E1EE100A704700061016000639
:1036D00010160000000000000000010203040607AD
:1036E00008090000000001020304000000000000BF
:1036F0006E83F9A22915444ED15727FCC0DD34F55D
:10370000999562DB4190433CAB6351FE3C38000825
:103710000000002020000000D00100085C380008F4
:1037200020000020780C0000EC01000810010000CF
:1037300043000000F8FFFFFF004040404040404091
:103740004040414141414140404040404040404074
:103750004040404040404040400502020202020218
:103760000202020202020202022020202020202067
:10377000202020020202020202029090909090907B
:103780001010101010101010101010101010101039
:1037900010101010020202020202888888888888AD
:1037A0000808080808080808080808080808080899
:1037B00008080808020202024000000000000000A1
:1037C00000000000000000000000000000000000F9
:1037D00000000000000000000000000000000000E9
:1037E00000000000000000000000000000000000D9
:1037F00000000000000000000000000000000000C9
:1038000000000000000000000000000000000000B8
:1038100000000000000000000000000000000000A8
:103820000000000000000000000000000000000098
:103830000000000000000000000000000000000088
:103840000000000010000000010000000024F4004F
:0C3850000000000000000000000000006C
:040000050800019559
:00000001FF
